:060000000C942F000C948B
:1000060000000C9400000C9400000C9400000C946A
:1000160000000C9400000C9400000C9400000C945A
:1000260000000C9400000C9400000C9400000C944A
:1000360000000C9400000C9400000C9400000C943A
:1000460000000C9400000C9400000C94000040F991
:100056002430191202780010F894EE27ECBBF1E078
:10006600FBBFEBBFE5BF8DE0A2E0BB27ED938A9512
:10007600E9F780E094E0A0E6ED930197E9F7EFE574
:10008600EDBFE4E0EEBFC0E6D1E00C944A0010E01C
:1000960000E020E030E0EFEFE7BBE0E0E8BBEFEFA9
:1000A600E1BBE0E0E2BBEFEFEABBE0E0E4BB10E07F
:1000B600163090F500E00A3068F5DE98103019F039
:1000C600003009F4DE9A20E030E0243FE1E03E070C
:1000D60024F424D02F5F3F4FF8CF989B19C0DE98A9
:1000E600103019F0003009F4DE9A20E030E0243FA9
:1000F600E1E03E0724F412D02F5F3F4FF8CF0030E7
:1001060029F4103009F416E00AE011500150E7CF47
:100116000F5FD1CF1F5FCCCFCACFFFCFE1E0E2BBED
:10012600E12FF0E0EC5AFF4F049008BAA1E0B0E0EE
:100136000E94A900E2E0E2BBE02FF0E0EC5AFF4F9C
:10014600049008BAA1E0B0E00C94A900109639F02A
:1001560080ED97E00197F1F7A8951197C9F70895F3
:00000001FF
