:080000000C9431000C94000087
:100008000C9400000C9400000C9400000C94000068
:100018000C9400000C9400000C9400000C94000058
:100028000C9400000C9400000C9400000C94000048
:100038000C9400000C9400000C9400000C94000038
:100048000C9400000C9400000C94000040F924303B
:100058001912027800100906C7C7F894EE27ECBBFE
:10006800F1E0FBBFEBBFE5BF8DE0A2E0BB27ED935E
:100078008A95E9F780E094E0A0E6ED930197E9F727
:10008800EFE5EDBFE4E0EEBFC0E6D1E00C944C0034
:100098002197E0E0E88310E000E030E020E040E075
:1000A80050E0EFEFE7BBE0E0E8BBEFEFE1BBE0E0FB
:1000B800E2BBEABBC89B2CC040E050E04436E0E01D
:1000C8005E0724F4DBD04F5F5F4FF8CFCD9B08C0AD
:1000D800093029F4193009F41FEF0FEF1F5F0F5F84
:1000E800CE9BEACF003029F4103009F41AE00AE078
:1000F80011500150CE9B0BC040E050E04931E0E088
:100108005E0724F4BBD04F5F5F4FF8CFF3CFD4CF57
:10011800C99B1DC040E050E04A3FE0E05E07BCF4E8
:10012800E1E0E2BBEEE5F0E0C1D0E2E0E2BBEFE502
:10013800F0E0BCD0E4E0E2BBE0E6F0E0B7D0E8E015
:10014800E2BBE1E6F0E0B2D04F5F5F4FE5CFCA9B7C
:1001580020C010E01A30E8F400E00A30C0F430E0C3
:100168003A3098F420E02A3070F440E050E0493109
:10017800E0E05E0734F482D09FD0A5D04F5F5F4F98
:10018800F6CF2F5FF0CF3F5FEBCF0F5FE6CF1F5F5C
:10019800E1CFCB9B25C0E881E03031F4EF5FE88305
:1001A80019E009E039E029E040E050E04931E0E0B9
:1001B8005E0734F463D080D086D04F5F5F4FF6CFB0
:1001C800203069F4303049F4003029F4103009F453
:1001D8001AE00AE011503AE001502AE0315021506B
:1001E800CC9B4AC040E050E04A3FE0E05E07A4F400
:1001F800E1E0E2BBE4E5F0E059D0E2E06BD0E4E016
:10020800E2BBE5E5F0E052D0E8E0E2BBE6E5F0E08D
:100218004DD04F5F5F4FE8CF40E050E04A3FE0E00D
:100228005E077CF4E1E056D0E2E0E2BBE7E5F0E00F
:100238003DD0E4E0E2BBE7E5F0E038D04F5F5F4F48
:10024800EDCF40E050E04A3FE0E05E07A4F4E1E093
:10025800E2BBEAE5F0E02AD0E2E0E2BBEBE5F0E061
:1002680025D0E4E0E2BBE4E5F0E020D0E8E032D0DD
:100278004F5F5F4FE8CFB6CF1DCFFFCFE1E0E2BBC6
:10028800E12FF0E0EC5AFF4F049008BAA1E0B0E08B
:100298000E947201E2E0E2BBE02FF0E0EC5AFF4F6F
:1002A800049008BAA1E0B0E00C947201049008BA76
:1002B800A1E0B0E00C947201E4E0E2BBE32FF0E0CF
:1002C800EC5AFF4FF3CFE8E0E2BBE22FF0E0EC5A44
:1002D800FF4FECCFE2BBEDE5F0E0E8CF109639F048
:1002E80080ED97E00197F1F7A8951197C9F7089560
:00000001FF
